:100000000004002091010000E1A300009FAD00006A
:100010009301000093010000930100009301000090
:100020009301000093010000930100009301000080
:100030009301000093010000930100007DAE0000D9
:10004000930100009301000093010000E5E400002B
:100050009301000009E500001DE5000075E50000C2
:10006000930100009301000061E50000930100008E
:1000700093010000930100004DE6000025E500001B
:1000800039E500004DE500009301000093010000F8
:100090009301000093010000930100009301000010
:1000A0009301000093010000930100009301000000
:1000B000930100009301000093010000A5B300002C
:1000C00072B6244880F30888234880F30988022008
:1000D00080F31488BFF36F8F08F0B8FF08F0E7FBD8
:1000E0001E481F491B4A914202DA08600431FAE7B0
:1000F0001C49194A914202DA08600431FAE71A49A8
:100100001A4A1B4B9A4204DA086810600431043220
:10011000F8E700201749184A914202DA08600431D2
:10012000FAE708F097FF08F092FF144C144DAC4228
:1001300003DA216888470434F9E704F03BFA114CEC
:10014000114DAC4203DA216888470434F9E70F49BE
:100150000847000000040020000C002055555555AC
:100160000000002000040020B8140100000C002052
:100170004816002060160020CC310020C00000008E
:10018000C0000000C0000000C0000000519000004E
:1001900096E700F000F8FEE7F0B544464D465646B7
:1001A0005F46F0B46B46CB60C3689D46F0BCA0468A
:1001B000A946B246BB46F0BD62B6281CA047002047
:1001C0000AF0C8F8FEE70AF029F8024A024B136069
:1001D000FEE7C04604ED00E00000008002B4714676
:1001E00049084900095649008E4402BC7047C04680
:1001F00002B4714649084900095C49008E4402BCBA
:100200007047C04603B47146490840004900095E82
:1002100049008E4403BC704703B47146490840004E
:100220004900095A49008E4403BC7047002934D064
:100230000123002210B488422CD301242407A142B8
:1002400004D2814202D209011B01F8E7E400A14275
:1002500004D2814202D249005B00F8E7884201D310
:10026000401A1A434C08A04202D3001B5C082243E8
:100270008C08A04202D3001B9C082243CC08A04259
:1002800002D3001BDC082243002803D01B0901D045
:100290000909E3E7100010BC704701B5002000F029
:1002A0005FF802BD0029F8D003B5FFF7C1FF0EBC0F
:1002B0004243891A1847C046002941D010B40400AF
:1002C0004C40A44601230022002900D549420028C1
:1002D00000D5404288422CD301242407A14204D2F5
:1002E000814202D209011B01F8E7E400A14204D2D5
:1002F000814202D249005B00F8E7884201D3401AEC
:100300001A434C08A04202D3001B5C0822438C080D
:10031000A04202D3001B9C082243CC08A04202D377
:10032000001BDC082243002803D01B0901D0090967
:10033000E3E710006446002C00D5404210BC704733
:1003400001B5002000F00CF802BDC0460029F7D02E
:1003500003B5FFF7B3FF0EBC4243891A1847C046E6
:100360007047C046844608006146FFE71FB50EF09F
:10037000F6FD002801D40021C8421FBD10B50EF0C3
:100380008BFD4042013010BD10B50EF0E8FD002895
:1003900001DB002010BD012010BDC04610B50EF0DD
:1003A000DEFD002801DD002010BD012010BDC0468B
:1003B00010B50EF096FD002801DC002010BD0120D4
:1003C00010BDC04610B50EF08CFD002801DA0020EB
:1003D00010BD012010BDC0461C2101231B04984202
:1003E00001D3000C10391B0A984201D3000A0839C6
:1003F0001B09984201D30009043902A2105C40187D
:100400007047C04604030202010101010000000020
:1004100000000000002B11D1002A0FD1002900D1CB
:10042000002802D00021C943080007B4024802A1F5
:100430004018029003BDC04629FFFFFF03B4684681
:1004400001B502980EF0D2FB019B9E4602B00CBC97
:100450007047C046D0400B00D1409C46203AD34064
:10046000184352426346934018437047914003003B
:1004700090409C46203A9340194352426346D340F1
:10048000194370478446100062468C461900634643
:1004900000E0C0461FB510F07BF9002801D4002110
:1004A000C8421FBD10B510F0DDF84042013010BD4C
:1004B00010B510F06DF9002801DB002010BD0120FF
:1004C00010BDC04610B510F063F9002801DD002012
:1004D00010BD012010BDC04610B510F0FDF8002879
:1004E00001DC002010BD012010BDC04610B510F089
:1004F000F3F8002801DA002010BD012010BDC0462D
:1005000010B5002903D1FFF767FF203002E0080093
:10051000FFF762FF10BDC04610B5062000F0A6FA36
:1005200001200BF0AFFAC04610B5034B010018686C
:1005300000F034F910BDC046000C002010B5034B8C
:100540000100186800F0D4F810BDC046000C00206F
:1005500030B5032A0CD903000B439B071CD1036859
:100560000C68A34218D1043A04300431032AF6D8A7
:10057000551E002A0ED002780C7894420ED1013517
:100580000123013904E0C25C0133CC5CA24205D1F5
:10059000AB42F8D1002030BD551EECE7101BFAE746
:1005A000F0B5C64600B50F2A43D90B000326034316
:1005B0001E400C000300002E40D11500103D2D09F7
:1005C000AC462D01A846804400E03B0067682568E2
:1005D0005F60E7681D60DF601F00A56810379D60E1
:1005E00010344345F1D165460F230C2401352D010C
:1005F000491913404519144223D08C59AC51043683
:100600009C1B032CF9D80324043B9B0801339B005B
:100610002240ED18C918561E002A07D0002300E01A
:100620002300CA5C5C1CEA549E42F9D180BCB846E7
:10063000F0BD0500561E002AF0D1F7E7561E050052
:10064000ECE71A00F6E7C046F0B5050083074AD08C
:10065000541E002A44D0CEB20300032202E001352A
:10066000013C3DD301332E701342F8D1032C2FD916
:10067000FF220A40150215432A0415430F2C35D9D1
:100680002700103F3F093E01B4461E001A001036F5
:100690006644156055609560D5601032B242F8D15D
:1006A0000F260C2201373F012640DB19370022427A
:1006B00017D03E1FB608B400A4461A001C1D64449F
:1006C00020C2A242FCD103240136B6009B193C4053
:1006D000002C05D0C9B21C19197001339C42FBD102
:1006E000F0BD3400F4E714000300BFE72700E0E7A3
:1006F00070B50500002915D00C1F2368002B27DBDF
:10070000280000F03DFA244B1A68002A05D0A242C6
:100710000CD921686018824224D0626028001C60D5
:1007200000F036FA70BDA34203D81A005368002BBC
:10073000F9D111685018A0421BD027D82168601841
:10074000834207D063605460280000F021FAE9E793
:10075000E418D5E718685B688446614421606360EB
:100760005460F1E710685268844661442160626019
:10077000D4E720680918501811608342E4D1186842
:100780005B688446614411605360DDE70C232800F8
:100790002B6000F0FDF9C5E760160020F8B50323D3
:1007A000CD1C9D43083506000C2D2AD20C25A942EC
:1007B00029D8300000F0E4F92A4F3A68002A0AD01C
:1007C00013685B1B04D441E023685B1B1FD5220028
:1007D0005468002CF8D17B68002B3DD029003000F4
:1007E0000BF035F9431C2AD00323C41C9C43A042C0
:1007F00005D0211A30000BF02AF9431C1FD02560C8
:1008000010E0002DD3DA0C2300203360F8BD0B2B51
:1008100005D86368A2421DD0536003E01400236032
:10082000E4182560300000F0B3F9200007220B30F7
:10083000231D9043C21AE9D01B1AA350E6E70C23EC
:100840003000336000F0A4F90020DFE70B2BE5D87F
:10085000140053683B60E5E7002130000BF0F7F827
:100860007860BBE760160020114B70B51C6805006E
:10087000A06B002803D000230561436170BD1830D0
:10088000FFF752FEA06300280CD00A4B0122036040
:10089000094B4360094B83600B2383810023026172
:1008A0004361E8E7064B00224221064800F024F9A4
:1008B000000C00200E33CDAB34126DE6ECDE0500EB
:1008C000E813010000140100184B70B51D68AC6BF3
:1008D000002C0ED020696169154A164B0EF046F9BE
:1008E0000122002312184B41580040082261636125
:1008F00070BD1820FFF718FE041EA8630FD00E4B22
:10090000012203600D4B43600D4B83600B238381F9
:1009100000230261436107480A4A064BE6E70A4B97
:1009200000224E21094800F0E7F8C046000C0020E4
:100930002D7F954C2DF451580E33CDAB34126DE60E
:10094000ECDE05002E7F954CE81301000014010039
:1009500010B580210400FFF721FF6064002807D054
:1009600002000023803208C09042FCD1002010BD5C
:1009700001204042FBE7C046426C10B50023002A2C
:1009800001D0180010BDFFF7E3FF0300F9E7C046F0
:1009900070B505000C0016001F2907D8436C002B0A
:1009A00009D0A4001B1918681E6070BD16230360CF
:1009B00001204042F9E7FFF7CBFF002801D16B6C23
:1009C000EFE701204042F0E770B505000C001F2959
:1009D00020D8436C002B0ED08A009B181A68002A7E
:1009E00009D0012A14D0511C0ED00021200019601A
:1009F0009047002070BD280000F07AF82200010026
:100A0000280000F061F8F5E7162303600120F1E704
:100A10000020EFE71623036001204042EAE7C046CA
:100A200070B505000C001F291DD8436C002B10D099
:100A3000A2009B181A68002A09D0511C11D0012A63
:100A40000DD00021200019609047002070BD0120CA
:100A5000FCE7FFF77DFF002805D16B6CE8E703207A
:100A6000F4E70220F2E701204042EFE710B5034B24
:100A700001001868FFF7A8FF10BDC046000C002059
:100A800010B5044B0A001B6801001800FFF780FF37
:100A900010BDC046000C0020054B10B51B6800209F
:100AA0005A6C002A00D010BD1800FFF751FFFAE77A
:100AB000000C002010B5034B01001868FFF7B0FFD1
:100AC00010BDC046000C0020002370B5074C050087
:100AD0000800110023600AF0DDFF431C00D070BD48
:100AE0002368002BFBD02B60F9E7C046A43100201F
:100AF00010B50AF0D7FF10BD30B51C000A4B050039
:100B00001B6885B0D868002A0AD0084B029201936E
:100B100000912B002200064900F020F8FFF7FCFCB2
:100B2000044B1A00F2E7C046000C00203414010008
:100B30004414010040140100130010B50022FFF717
:100B4000DBFFC0460CB400B583B004AB04CB01930B
:100B500000F05EF803B008BC02B018470EB400B550
:100B600082B003AB0100054804CB0068019300F09C
:100B70004FF802B008BC03B01847C046000C002074
:100B800010B5024801F01CF910BDC046B831002074
:100B900010B5024801F01CF910BDC046B831002064
:100BA000936810B5013B9360002B04DA9469A3426B
:100BB00007DB0A2905D01368581C1060080019705B
:100BC00010BD00F0BFFBFBE7F8B506000F00002BDF
:100BD0000DD01400D51802E00134AC4207D02178C2
:100BE0003A003000FFF7DCFF431CF5D1F8BD0020D0
:100BF000FCE7C046936810B51400002B02D100201A
:100C0000536010BD00F0FAFE0023A3606360F8E7B4
:100C1000F0B5DE464E4657464546E0B59FB00390D8
:100C20008B4691461C00002804D083690293002B58
:100C300000D1CEE0BF4B9B4500D1D0E0BE4B9B45E1
:100C400000D1D0E0BD4B9B4500D16FE15A465B46D9
:100C5000526E9B89D20702D49A0500D45FE11B072C
:100C600000D443E15B461B69002B00D13EE1002329
:100C700006AD6B6120336B761033AB762F3B984615
:100C80005B4602934B461B780594AD4FB346002B51
:100C900000D188E0252B00D126E14E4603E0252B2C
:100CA00000D1A4E026007378741C002BF7D14B46CA
:100CB000E31A9A4677D053464A4602990398FFF7BB
:100CC00083FF431C6FD06B6953446B617378002BB7
:100CD00069D00122002352426A60443201342B6001
:100CE000EB60AB60AB54AB6506E04346C01B834092
:100CF00034002A6813432B6021780522380001F064
:100D0000D9F8661C0028F0D12B68B246DA0602D565
:100D100043222021A9541A0702D543222B21A9548A
:100D200021782A2969D1059A111D12680591002A96
:100D300000DAB5E0EA606178A61C2E2900D175E0E2
:100D4000804B03221800994601F0B4F8002800D126
:100D50008AE04B46C01A402383402A683178134307
:100D60002B600622731C78489946297601F0A2F878
:100D7000002800D183E0754B002B00D189E005AB42
:100D80000093029A724B2900039800E000BF83464B
:100D90005B46013307D06B695B446B614B461B7844
:100DA000002B00D076E7029B9B465B6EDB0700D5ED
:100DB00097E05B469B899A0500D48EE05B0600D5E0
:100DC000A7E068691FB0F0BCBB46B246A946A04682
:100DD000F0BD00F0EDFC574B9B4500D02EE7039B88
:100DE0005B689B4632E7039B9B689B462EE74B461E
:100DF000E31A9A4600D16CE75DE70A00303AA24652
:100E0000092A9AD8EB68180001E034000136830003
:100E10001B1831785B0098180A00303A092AF4D977
:100E2000B246E860A61C2E2900D089E753465978BF
:100E30002A293BD1059B1A1D059252469178D61C52
:100E4000022294461B68E2446B60002B00DB77E7CC
:100E500001235B426B603B4B03221800994601F073
:100E600029F8002800D074E7B146564631780622AA
:100E70003548297601F01EF8002800D07BE705AB45
:100E80000093029A324B2900039800F007F9834639
:100E90007EE70722059B07339343083305937AE7E0
:100EA0005242EA60022213432B6044E70A00002307
:100EB000303A6B601800092A01D92DE01E0083002A
:100EC0001B1871785B0098180A00303A731C092AC5
:100ED000F4D99A460236686032E75B46986D00F0B6
:100EE00077FF5B469B8969E74C46F2E659460398D3
:100EF00000F09EFA002800D1B9E65B465B6EDB0786
:100F000007D45B469B899B0503D45B46986D00F034
:100F10005FFF0120404255E7B246013610E75B46CD
:100F2000986D00F04DFF5B469B8998E6039BDB685C
:100F30009B468BE6EC090100CC090100AC090100DD
:100F4000741401007C1401008014010000000000F2
:100F5000C90B000010B504001300034A10680A0012
:100F60002100FFF755FE10BD000C0020F0B54F46E4
:100F70004646D646C0B51F00089B914698468A68EB
:100F80000B6906000C00934200DA13004A46136016
:100F90004322A25C002A02D04A4601331360236830
:100FA0009A065AD54B461B6806209A1C4B461A6077
:100FB00023681900184208D1E16800258A1A19210E
:100FC0008A461900A244002A3FDC4323E35C5A1EF0
:100FD00093418A060AD53020E11843310870452133
:100FE0005A1C615CA218433202331170220039008E
:100FF00043323000C047431C19D006232068A26842
:1010000021690340042B30D08A423ADD00239946FF
:10101000521A91441A34002502E001354D4530DA68
:101020000123220039003000C047431CF5D10120C4
:101030004042E0BCBA46B146A846F0BD4B46E26825
:101040001B680135D31AAB4220DD0123524639001B
:101050003000C047431CF1D1E9E706221A4212D002
:101060004323E35C5A1E9341C0E74B46E0681B688C
:10107000C31AD843C017184081468A42C8DC002BE7
:10108000C8DC0020D5E74A46126895E7432321686B
:10109000E35C5A1E93418A069DD4A7E7F0B55746F4
:1010A0009A4643239C464E464546DE468C4463465C
:1010B000E0B587B003930B7E914680460C00109AF2
:1010C0006E2B00D1D8E000D871E0732B00D11AE16B
:1010D00000D881E0752B00D1FFE0782B00D00BE128
:1010E0000B6878204521605494498B46116840C9AB
:1010F0001160180603D4580601D53604360CDA07F9
:1011000002D52022134323601027002E00D1C2E015
:1011100043230022E2546368A360002B00DAC5E099
:101120000422216891432160002E00D083E0002B2F
:1011300000D0BDE0039D082F00D18CE0039B5B1B1A
:101140002361534605AA009321004B464046FFF712
:101150000DFF431C22D023692A0049464046D04750
:10116000431C1BD022680598E368920700D47FE0F7
:101170001A1A002A00DC7BE026000025193606E05A
:10118000E368059801351A1AAA4200DC70E00123D1
:10119000320049464046D047431CF1D1012040422D
:1011A00007B0F0BCBB46B246A946A046F0BD632BD3
:1011B00000D184E01FD8002B69D0582B00D09BE0D1
:1011C000452163545E4923688B46116840C911600C
:1011D000180600D48FE792E76F2B7ED0702B00D0DB
:1011E0008AE02023096878200B434521236060545E
:1011F00052498B467AE7642B01D0692B7CD1116868
:101200002368081D10601D064AD50A681600002ACA
:1012100003DB4B4B0A279B467DE743222D21A1543C
:1012200062687642A260002A02DB042293432360B4
:10123000434B0A279B46039D00E00600390030001F
:10124000FFF730F85B465B5C013D2B70BE42F4D289
:10125000082F00D072E72368DB0700D46EE76368CD
:101260002269934200DD69E73023013D2B7065E779
:10127000984295DA180093E7136809681D1D6069A4
:1012800015601B680E0601D449064BD41860002374
:10129000039D236155E7202322689A43226037E7A4
:1012A0005D06B2D500228E5E3200B0E7002EC2D1BC
:1012B0005B4625001A7842234235E2543BE7136827
:1012C0002500191D11601A684223E254413B423542
:1012D000236143230022E25433E7116820680D1D87
:1012E0001560060601D440061ED40E686F2B1DD073
:1012F000134B0A279B460BE742222500A3540123E8
:1013000042352361E5E71368191D11601D686268A5
:101310000021280000F0CEFD00280BD0401B6060AB
:101320002061D6E71880B2E70E88DFE7044B082774
:101330009B46EDE660682061CBE7C0469C14010047
:1013400088140100F8B505000E001400002802D032
:101350008369002B29D02D4B9C422BD02C4B9C42D7
:1013600046D02C4B9C424ED0A369A360A3891B0797
:1013700026D52369002B23D0FF22F7B261691640DE
:101380002268D31A99422ADD0133A1680139A1608C
:10139000511C2160177062699A422BD0A389DB0728
:1013A00001D50A2E26D03000F8BD00F001FA174B07
:1013B0009C42D3D16C68A369A360A3891B07D8D4CE
:1013C0002100280000F034F8002819D1FF222369F9
:1013D000F7B2616916402268D31A9942D4DC210021
:1013E000280000F045F900280AD122680123CCE743
:1013F000AC68B9E72100280000F03AF90028D2D003
:1014000001267642CFE7EC68AEE7C046EC09010062
:10141000CC090100AC09010010B5044B0A001B689F
:1014200001001800FFF78EFF10BDC046000C002021
:101430003E4B70B51D6806000C00002D02D0AB6954
:10144000002B1BD03A4B9C421ED03A4B9C424CD0B6
:10145000394B9C4260D00C23E25E93B2190719D538
:101460002169002921D0DA072ED50023A360636902
:1014700000205B42A36100292ED070BD280000F03F
:1014800097F92B4B9C42E0D16C680C23E25E93B23F
:101490001907E5D4D90641D55B0728D4216908236B
:1014A0001343A3819BB20029DDD1A02280209200AA
:1014B00080001A408242D6D02100300000F0B2FCF9
:1014C000A3892169DA07D0D400229B0700D462697E
:1014D000A26000200029D0D10C22A35E1A06CCD530
:1014E00040221343A3810138C7E7AC68B3E7616BBF
:1014F00000290AD023004433994204D03000FFF77A
:10150000F7F80C23E25E0023636324239A4300234D
:10151000216963602160C2E7EC689CE709233360BE
:10152000402301201A43A2814042A6E7000C00207C
:10153000EC090100CC090100AC090100F0B5C64678
:1015400000B58B8980460C001A0745D44A68002AEA
:1015500063DDE56A002D3BD0424641461668002215
:101560000A60216ADA045CD4012300224046A847BD
:10157000431C61D0A389E56A216A5B0706D56368CD
:10158000C01A636B002B01D0236CC01A0023020029
:101590004046A847431C46D143461B680C21625E67
:1015A000002B56D01D2B01D0162B5DD1002363607C
:1015B000236923604346616B1E60002908D0230025
:1015C0004433994202D04046FFF792F80023636308
:1015D000002080BCB846F0BD0E69002EF8D00A6825
:1015E0000E60951B00229B0700D14A69A260002D66
:1015F00004DCEDE736182D1A002DE9DD2B00320052
:10160000216A4046A76AB8470028F3DC402201203F
:10161000A38940421343A381DBE70A6C002A98DCCC
:10162000D6E7606DA9E70023636023692360A3897F
:10163000DB04BFD56065BDE743461B68002B99D02E
:101640001D2B0DD0162B0BD04022A3891343A38151
:10165000BFE7636023692360D304ABD56065A9E766
:10166000434600201E60B4E740231A43A281B0E73E
:101670000B6970B505000C00002B23D0002802D0A8
:101680008369002B22D0194B9C421DD0184B9C42E1
:101690001FD0184B9C4226D00C22A35E002B11D0E9
:1016A000626ED20701D49B0519D528002100FFF7EF
:1016B00045FF636E0500DB0702D4A3899B050AD5AD
:1016C000280070BD0025FBE76C68E5E700F070F8C6
:1016D000D9E7AC68E0E7A06D00F07AFBF0E7A06D19
:1016E00000F06EFBE1E7EC68D6E7C046EC090100CC
:1016F000CC090100AC09010010B5011E04D0054B56
:101700001868FFF7B5FF10BD034B0449186800F0D7
:1017100027FBF8E7000C0020A80901007116000063
:1017200010B5024900F01CFB10BDC0467116000048
:10173000436E10B5DB0702D483899B0501D50020D9
:1017400010BD806D00F03CFBF9E7C046436E10B55C
:10175000DB0702D483899B0501D5002010BD806D75
:1017600000F036FBF9E7C04670B568244A1E5443C2
:101770000E0021007431FFF711F8051E09D0002377
:101780002200036046600C30A86068320021FEF73A
:101790005BFF280070BDC04610B5034B03491868B5
:1017A00000F0DEFA10BDC046A80901007116000065
:1017B000F0B5DE46454657464E46E0B505003D4B82
:1017C00083B018009B4600F0FBFAAB69002B64D194
:1017D000AB64EB642B65384B384A1B68AA620193F3
:1017E000AB4264D0280000F077F86860280000F071
:1017F00073F8A860280000F06FF86E680024E860B5
:1018000004233000F360746634607460B460346143
:101810007461B461082200215C30FEF715FF284B8B
:10182000284F9A467362284B36629946B362274B1B
:101830003763F362AE6898463000254B7466F360F8
:1018400034607460B46034617461B4610822002152
:101850005C30FEF7F9FE534673624B46B362434673
:101860003662F3623763EE681A4B3000F3607466D9
:1018700034607460B46034617461B4615C300822B7
:101880000021FEF7E1FE534673624B46B3624346C6
:10189000F362012336623763AB61584600F098FA71
:1018A00003B0F0BCBB46B246A946A046F0BD01233A
:1018B000AB6197E7B4310020A809010021170000AF
:1018C00041200000D92000006D200000AD20000064
:1018D0000900010012000200F8B5254E0700300093
:1018E00000F06EFA234B1D68AB69002B2ED04835F3
:1018F0006B68AC68013B03D523E06834013B20D31F
:101900000C21625E002AF8D1002520001A4B5830C5
:10191000E360656600F04CFA300000F059FA2000F0
:101920002560A560656025616561A56108220021CB
:101930005C30FEF789FE6563A563A564E56420005D
:10194000F8BD2C68002C05D02500D1E72800FFF752
:101950002FFFCCE704213800FFF706FF041E2860A4
:10196000F2D1300000F034FA0C233B60E7E7C046C8
:10197000C8310020A80901000100FFFF10B502488E
:1019800000F01EFA10BDC046C831002010B5024854
:1019900000F01EFA10BDC046C831002010B5024844
:1019A00000F00EFA10BDC046B431002010B5024858
:1019B00000F00EFA10BDC046B431002010B5044846
:1019C00000F0FEF9034B0449186800F0A7F910BDB8
:1019D000C8310020000C00203117000010B5044B66
:1019E0000449186800F09AF9034800F0F1F910BDB5
:1019F000000C00204D170000C8310020F0B545460E
:101A0000DE4657464E46E0B5936883B000900C0022
:101A10009046002B6DD08B891A0700D471E00A69BB
:101A2000002A00D16DE0424616689A0700D475E09E
:101A3000A36A00279A46B54B00259946216A002DD6
:101A400016D02B004D4500D9B04B3A000098D04736
:101A5000002800DCD5E043469B683F182D1A181A71
:101A60004346986045D0A36A216A9A46002DE8D182
:101A7000376875680836E2E74B461B689A464B465E
:101A80005F6808239C46E144002FF5D03A000A2104
:101A9000504600F00FFA002800D1CEE05346013046
:101AA000C61A3300BB469F4200D99B462068226974
:101AB0006369904204D9A2689D18AB4500DD92E0AD
:101AC0005B4500DDF9E0A56A5246216A0098A84707
:101AD000051E00DC95E0761B0120002E00D1E4E01D
:101AE00043469B68AA447F1B5D1B43469D6000D014
:101AF00095E0002003B0F0BCBB46B246A946A04624
:101B0000F0BD21000098FFF793FC002800D0F9E019
:101B10004246A38916689A0700D589E7DA0778D480
:101B2000002291468022920000279346A5682068F3
:101B3000002F53D05A46134200D181E0AA46BD423D
:101B400000D9AFE09022D20013422ED02169451A6D
:101B5000AC466069019542001218D00F8218781CBB
:101B6000521060449246904201D9824602005B05C1
:101B700000D4AFE011000098FEF710FE051E00D162
:101B8000BAE0019A2169FEF70BFDA389604A134070
:101B900080221343A3815246019B2561E818BA466F
:101BA0003D00D31A20606261A3605246494600F0AE
:101BB000C1F9A3685D1BA5603D000027236853445D
:101BC000236043469B68A9445D1B43469D6000D14A
:101BD0008FE7A5682068A389002FABD132687768AA
:101BE00091460836A4E751462A0000F0A3F923687D
:101BF00021005B1923600098FFF73AFD002800D10F
:101C000069E70C22A35E402201201343A3814042D6
:101C100070E70023B14600209A4600271E00002FDF
:101C200000D129E7002800D03BE73A000A215046BE
:101C300000F040F9002800D030E77B1C1E0031E79F
:101C40002369834217D363699A46BB4213D8314B49
:101C500038009F4200D930485146FEF72DFB5346CD
:101C60004A464343216A0098A56AA8470028C8DD70
:101C700005007F1BA5E7BD4200D93D002A0049466B
:101C800000F058F9A36822685B1B5219A360226018
:101C9000002BEED121000098FFF7EAFC0028B0D11C
:101CA0007F1B8EE73D00BA467FE721000098FFF7D3
:101CB000DFFC002800D113E7A3E75A46514600F0A5
:101CC00039F95A46A3685D469B1AA36023685B44B2
:101CD000236000E7009800F08BF9051E00D05AE75A
:101CE000009D21692800FEF703FD8022A38993430C
:101CF000743A1BB22A6086E70C23009A13600C2208
:101D0000A35E80E701204042F4E6C04600FCFF7F6E
:101D10007FFBFFFFFEFFFF7FFFFFFF7FF0B5C646A3
:101D2000483000B5884607000026002813D07B689D
:101D3000BC685D1E0CD4A389012B06D90E22A35EBC
:101D4000013302D02000C04706436834013DF2D27F
:101D50003F68002FEBD1300080BCB846F0BDC046D4
:101D6000F8B54746CE4680B50700483780468946D5
:101D70000026002F14D07B68BC685D1E0DD4A3899B
:101D8000012B07D90E22A35E013303D02100404668
:101D9000C84706436834013DF1D23F68002FEAD1BD
:101DA0003000C0BCB946B046F8BDC0467047C0461A
:101DB0007047C0467047C0467047C0467047C0462F
:101DC0007047C04601207047012070477047C046E9
:101DD0007047C04670B50C001D000E23C95E96B05A
:101DE0001600002914DB6A4609F03EFE00280FDBCE
:101DF000F022019B12021340094A944663445A425E
:101E000053412B608023DB003360002016B070BD8F
:101E100000232B60A3891B06F4D540233360F4E72D
:101E200000E0FFFF70B58B8982B006000C009B07B5
:101E300007D523004733236023610123636102B088
:101E400070BD01AB6A46FFF7C5FF00990500300081
:101E5000FEF7A4FC002810D08022154BB362A389A2
:101E600020601343009A1BB26261019AA381206132
:101E7000002A0CD12B43A381E1E70C22A35E9A0533
:101E8000DDD40322934302221343A381D1E70E231F
:101E9000E15E300009F0F4FD002802D10C22A35EBF
:101EA000E8E70322A3899343012213431BB2E1E72E
:101EB0002117000070B5CDB2830734D0531E002A1D
:101EC0001BD00278AA4219D0032404E0013B14D3AA
:101ED0000278AA4212D001302042F7D1032B0ED84B
:101EE000002B0AD00278AA4208D0C31802E0027878
:101EF000AA4203D001308342F9D1002070BDFF22F5
:101F00000C06240C114021430C04084E0C430268BB
:101F100007496240511891433142E3D1043B0430F8
:101F2000032BF4D8DCE71300D8E7C046808080801C
:101F3000FFFEFEFEF0B5C64600B588420CD98B18F0
:101F4000984209D2531E002A03D0CA5CC254013BF6
:101F5000FBD280BCB846F0BD0F2A0CD80500561E37
:101F6000002AF6D0002300E02300CA5C5C1CEA547F
:101F70009E42F9D1EDE70B00032603431E400C00FF
:101F80000300002E2ED11500103D2D09AC462D0169
:101F9000A846804400E02B001D00276810351F6014
:101FA00067685F60A7689F60E7681034DF6043453B
:101FB000F1D165460F230C2401352D014919134039
:101FC0004519144211D08C59AC5104369C1B032C7A
:101FD000F9D80324043B9B0801339B00ED18C91872
:101FE0002240BCE7561E0500BCE71A00B7E7C04612
:101FF000F8B507000C00150000291BD0002A15D0E9
:1020000000F070F82600A84201D33000F8BD290086
:102010003800FEF7C3FB061EF7D021002A00FEF7AA
:10202000BFFA21003800FEF763FBEEE7FEF760FB26
:102030000026EAE71100FEF7B1FB0600E5E7C0461F
:1020400070B50C000E25495F09F0F6FC002803DB93
:10205000636D1B18636570BDA389024A1340A38199
:10206000F9E7C046FFEFFFFF00207047F8B5160004
:102070001F000C228B5E0C0005000E22895EDA0523
:1020800008D4094A28001340A38132003B0009F01C
:10209000DAFCF8BD0022022309F0D3FC0C22A35E77
:1020A0000E22A15EEDE7C046FFEFFFFF70B50C000A
:1020B0000E25495F09F0C5FC431C06D08023A28988
:1020C0005B011343A381606570BDA389014A13407E
:1020D000A381F9E7FFEFFFFF10B50E23C95E09F0FA
:1020E000B4FC10BD0B1F1B68181F002B00DB7047D2
:1020F0000B58C018FBE7C0467047704710B50CF08E
:10210000CFF8002010BD0000094B0A491A780A4B8D
:10211000022A08D1022806D1013A1A700A70002258
:10212000064B1A80704700220A701A70FAE7C04600
:1021300084120020A62E0020141D0020A82E0020AE
:10214000064B10B51A78002A04D000221A700BF042
:102150005BFB10BD0BF0DCFBFBE7C046D528002085
:1021600010B50BF08BFE10BD10B50AF04DFB10BD85
:102170000023A54A13B51380A44A1370A44B9842B8
:1021800013D8163B984212D2A24B98424CD8A24B7D
:10219000984200D931E1E72800D1E7E024D865284A
:1021A00000D1E3E0E32800D1E0E0012016BD9B4B25
:1021B000C0181628F9D8FEF725F843004E0066002F
:1021C000770087009D00A900C700F8FFF8FF030112
:1021D00074017E018F01A401B501D101EB01FF0162
:1021E00012022B023F025502A423DB01984200D1C8
:1021F00036E18B4B9842D8D14B79002BD5D16B4629
:102200009C1D02222000FEF7CBF9864B22889A42C1
:10221000CBD1854B5A79012AC7D001225A710022AD
:102220009A71824B033233E1814BC01883B2032B86
:10223000BBD80328B9D84B79FDF7DAFFA0ABB3BC04
:10224000794B1B78012BB0D14A797A4B1A70002256
:10225000794B1A80A9E7744B1A78002AA5D14979DD
:10226000764A00290DD0012414709A78A242EED04B
:1022700020009C7009F006FF0AF006F9704B1C70F4
:10228000E5E71170E3E7684B1A78002A00D08CE785
:1022900049796C4A0029F4D0012414709A780220FC
:1022A000022AD4D09870E5E75F4B1A78002A00D054
:1022B0007BE74979644A0029E3D0012414709A78B5
:1022C000032AC4D00320EDE74B79002B00D16CE743
:1022D000554B1A78022A00D167E7022208201A70AB
:1022E00009F0D0FE0AF0C6FA0AF0CEF80022544BEC
:1022F0001A705AE74B79554A5549002B04D00123EF
:102300000B700023137050E70B70FBE74A79002A2B
:1023100000D04AE7444B58799979012806D1012920
:1023200000D042E79A710AF0AFF83EE70029F9D1F0
:102330000122E3209A7100F09BFBE72000F098FB5C
:10234000652000F095FBEEE74B79002B00D12CE7E0
:10235000404B03241B787F2B04D90AF013FA334B2C
:102360001C7022E70AF0F8F93B4BF9E72E4B9B79FA
:10237000002B00D119E700234B7116E7002B00D08A
:1023800013E704F05DFC9F2800D80EE70322324BD0
:10239000AEE7002B00D008E704F052FC0028F5D08F
:1023A00003E7002B00D000E704F0E0FCFF2800D09A
:1023B000FBE6EBE7002B00D0F7E604F0D7FCEDE7F7
:1023C0004A79002A00D0F0E6174BD979002910D0BD
:1023D0001A72DA7104F034FC0028A4D104F024FC51
:1023E000040004F027FCA0220100A0B204F016FCB7
:1023F00099E701221A72DA7195E74A79174B002A98
:1024000000D175E7012273E7101D0020121D002086
:10241000167E000023520000215200000082FFFFC0
:10242000015200000203000084120020FF1C002063
:10243000D987FFFFE61C00200E1D0020E71C0020AE
:10244000F81C0020E81C0020E91C0020381D00209A
:10245000391D0020AA2E0020F41C0020EA1C0020B8
:102460004B79002B00D0A0E66B469C1D0222200079
:10247000FEF796F8854B22889A4200D095E6844B69
:102480005A79002A00D190E600225A71814B01321C
:10249000E2201A7000F0ECFAE32000F0E9FAE620FE
:1024A00049E74B797C4A002B01D001232AE71370BE
:1024B0007A4A138079E64A79002A00D075E6744B8F
:1024C000197A002915D01A721A7B002A01D1A0327C
:1024D0001A730BF077F926E74979002900D064E6F2
:1024E0006B4A537A052B08D80133DBB25372062BA3
:1024F000EFD10122664B1A72EBE70123117253727E
:10250000E7E74B79002B00D04FE6614A137A002BA6
:1025100000D04AE6537A0621012B01D9013BD9B2FA
:102520005172D6E74B79002B00D03EE6584A137A19
:10253000002B00D039E6537A062B00D135E6022174
:102540008B43012B00D130E6937A19001031C9B2C8
:10255000EF2B01D80F33D9B29172E4E64B79002BFF
:1025600000D022E64A4A137A002B00D01DE6537AA7
:10257000062B00D119E602218B43012B00D114E672
:10258000937A19001039C9B20F2BE5D90F3BE2E756
:102590004B79002B00D008E63D4B197A002900D07A
:1025A00003E65A7A062A00D1FFE5DA7A0F2A01D922
:1025B0000F3AD1B2D972B6E64B79002B00D0F4E5D0
:1025C000334B1A7A002A00D0EFE55A7A062A00D156
:1025D000EBE5DA7AFF21EF2AECD80F32E9E74B7905
:1025E000002B00D0E1E52A4B1A7A002A00D0DCE566
:1025F0005A7A062A00D1D8E51A7B902A02D80F32DF
:102600001A7390E6A0221A730322254B1A708AE6E9
:102610004B79002B00D0C8E51D4B197A002900D05A
:10262000C3E55A7A062A00D1BFE51A7B0F2A01D9E1
:102630000F3AE5E71973E7E74B79002B00D0B4E5D3
:10264000134B1A7A002A00D0AFE55A7A062A00D135
:10265000ABE55A7B022A02D801325A7363E60422A0
:102660005A73D1E74B79002B00D09EE5084B197ABD
:10267000002900D099E55A7A062A00D195E55A7BBF
:10268000012A01D9013AE8E75973BDE701030000C7
:1026900084120020FF1C0020DA2D0020A42E002030
:1026A000F41C002010B5130004000120032C0BD8EB
:1026B000052909D80F2A07D80622624352181201A9
:1026C000D2188240014BD05A10BDC0460C0A0100FE
:1026D0000120704710B5FFF7FBFF10BD01207047C8
:1026E00010B5FFF745FD10BD704710B5FFF7FCFFB3
:1026F00010BD000013B5114B00901B780191002B09
:1027000016D16B465B79002B0DD0002A0BD000F060
:1027100095FD04000100009800F068FD200000997C
:1027200001F014FC16BD009800F074FD0400F5E7FC
:10273000009800F083FD0099F2E7C0466D16002076
:1027400010B504000A000188408800040843A188ED
:10275000FFF7D0FF10BD10B504000121FFF7F0FF17
:102760002100FFF7B7FF10BD10B504000021FFF7EF
:10277000E7FF2100FFF7B9FF10BD0120704710B53A
:10278000FFF7FBFF10BD10B5040000F035FC200082
:10279000FFF7F5FFFA2007F0E2FD10BD10B50120AC
:1027A000FFF7F1FF09F002FE10BD10B50020FFF7A2
:1027B000EAFF09F03BFE10BD70B501210500FFF7EF
:1027C000BFFF2900040005F09FFA002801D1002076
:1027D00070BD29002000FFF783FF0028F7D02900F3
:1027E000200005F08FF90028F1D02900200004F026
:1027F000B3FC0028EBD02900200004F083FC002863
:10280000E5D02900200004F0E7FA0028DFD02900F5
:10281000200005F0CDF90028D9D06B79002B0CD021
:10282000134B9C421ED00CD8124B9C4217D0124B1B
:102830009C4212D0033B9C420CD02800FFF74EFF75
:10284000C6E70E4B9C4210D00D4B9C42F5D101F0D7
:10285000EBF8F2E7FFF7A2FFB9E701F001F9FFF7A4
:10286000A4FFB4E701F0ECF8E7E701F0EEF8E4E7E5
:102870005A7C0000017C0000037C00005B7C0000AF
:102880005C7C000010B500F02DF8002004F0E8F8A2
:1028900005F041FD10BD0300000901D00300042034
:1028A0009A0802D013000230C0B25B0801D0013098
:1028B000C0B27047704701207047704770B5051C63
:1028C000FFF7F9FF041E02D0281CFFF7F6FF2000D7
:1028D00070BD704710B50400FFF7ECFF201CFFF738
:1028E000EDFF10BD10B505F073FBFFF7F3FF10BD52
:1028F00010B505F06DFB074B04001A78824207D033
:10290000187005F083FD044B18602000FFF7E2FF0C
:1029100010BDC0466C160020681600201FB50B0ABB
:10292000DBB200900191002B01D000F077FF0E2365
:1029300000226B441A80009B02AC02936B469B887A
:10294000A380DBB2934204D10298616800F0C4FE18
:102950001FBD2000FFF7FFFE0028F5D1F8E703793F
:1029600010B5012B02D1008800F08AFC10BD10B513
:10297000002904D004F046FD04F024FE10BD04F04C
:10298000A9FDF9E710B5041E12D0822811D105F077
:1029900029FB83070CD4392005F00EFC00F0D8FF8A
:1029A000502007F0DCFC392005F022FC00F0D0FFBD
:1029B00010BD83280DD105F015FBC307F8D45320B3
:1029C00005F0FAFB00F0C4FF642007F0C8FC5320B8
:1029D000EAE784280DD105F005FB4307E8D447203A
:1029E00005F0EAFB00F0B4FF642007F0B8FC4720D4
:1029F000DAE7031FDBB2A02B0CD805F071FB00282F
:102A000004D0200005F0F4FB00F0A2FF200005F048
:102A1000D3FBCBE703002033DBB2072B07D807201B
:102A200004400638A040C0B200F0D2FEBEE703006A
:102A30005B33DBB2022B04D8243880B205F0F8FAFD
:102A4000B6E703005833DBB21A2B05D8074A5B0000
:102A5000985A05F007FBABE703003333DBB2122BC8
:102A6000A6D804F0CFFC04F0ADFDA1E70C0D0100E9
:102A700010B500280FD082280ED105F0B3FA8307D5
:102A800009D5392005F098FB00F062FF392005F0E8
:102A9000AFFB00F05DFF10BD83280AD105F0A2FA5C
:102AA000C307F8D5532005F087FB00F051FF5320F2
:102AB000EDE784280AD105F095FA4307EBD54720C6
:102AC00005F07AFB00F044FF4720E0E7031FDBB28C
:102AD000A02BDCD903002033DBB2072B07D8072358
:102AE000034001209840C0B200F07AFED1E7030015
:102AF0005B33DBB2022B03D8002005F099FACAE75A
:102B000003005833DBB21A2B03D8002005F0AAFAD1
:102B1000C1E703003333DBB2122BBCD804F0DAFC7C
:102B200004F050FDB7E7000070B504000D00FFF79A
:102B300029FF0120002D0FD0FA2200239200280047
:102B400000210CF013F80023064A80185941FA229C
:102B500000239200FDF75EFC07F001FC2000FFF768
:102B600087FF70BDE7030000502110B5392800D061
:102B70000021FFF7D9FF10BD10B5002803D000F0E9
:102B800027FE00F0E5FE10BD10B5002803D000F0D0
:102B900027FE00F0DDFE10BDF0B585B087790C1C76
:102BA0004579029000F004FE23043F09019003934D
:102BB000002828D00195002D25D023041B0E0F22BC
:102BC0001900914340290FD0E1B20A0000202032C1
:102BD000D2B20190072A16D91F229343202B03D18A
:102BE000012910D987420ED00022AE4B01925B78AA
:102BF0005B0708D5022000F0E7FE00F0D9FD0123B5
:102C00004340DBB2019323041B0F03930B2B40D8EB
:102C10001800FDF701FB0C000C005F005F00BC001A
:102C2000D1003E003E00D6003601490149010F2285
:102C3000230426051B0E360F934300D03601E4B261
:102C4000002D12D0002E0BD023002033DBB2300039
:102C5000072B01D9002C05D100F0BAFD00F078FE59
:102C6000200058E000F0CAFDF8E72000FFF700FF61
:102C7000002E0ED023002033DBB23000072B01D909
:102C8000002C02D100F0ACFD01E000F0BFFD00F02F
:102C90005FFE039B083B032B03D805F099F9FFF770
:102CA00019FE019B002B13D000F07AFD01230200D6
:102CB0001A4018420CD1029B5A7100F06BFD00F0D3
:102CC00025FA029800F060F900F064FD00F02AFA9D
:102CD00005B0F0BD0F22230426051B0E360F9343CB
:102CE000202B00D03601E4B2002C06D0012C36D0C7
:102CF000002D40D0002F1CD0B2E76A4B5B785B07F9
:102D000013D4002D0AD0002E04D0300000F060FD56
:102D100000F01EFE0020FFF735FEBAE72800FFF79F
:102D2000A7FE002EB5D03000ACE7002D0BD0002F51
:102D300003D13000FFF720FFABE7012FA9D130000E
:102D400000F08CFDA5E7002FA3D13000FFF71CFF9A
:102D5000300000F091FD300000F06CFD99E7002D8F
:102D600002D0052F95D8E4E7042F00D991E7300071
:102D7000FFF70AFF8DE7002FF9D05020392C00D043
:102D8000012007F0ECFA2000FFF772FE81E7200532
:102D9000800F0AD0012800D07BE70020854201D0B7
:102DA000A005800D05F05EF973E7002D01D0A005A8
:102DB000800D05F03DF96CE72900E0B2FFF7D7FD83
:102DC00067E723049B019B0F28D1002D00D060E70B
:102DD0002206520F92002007D2B2000F904010211D
:102DE000C3B208002040214203D00F209040C043CE
:102DF000C0B22405A40F1843022C09D0032C0AD01A
:102E0000012C02D000F054F943E700F047F940E705
:102E100000F058F93DE700F03CF93AE7A3059B0FB5
:102E2000DAB2002D1FD0DB0700D432E72206520FA2
:102E300092002007D2B2000F90401021C3B20800C8
:102E40002040214203D00F209040C043C0B224054F
:102E5000A40F1843022C0ED0032C0FD0012C07D046
:102E600000F082F915E702231A4200D111E7DDE7ED
:102E700000F070F90DE700F081F90AE700F032F98F
:102E800007E7E6B22405240F002D03D0200000F050
:102E90003DF94EE73000FFF777FE200000F042F9E1
:102EA000F7E6C046AA2E0020E6B23000F03804282B
:102EB00042D8FDF79DF9032611182200002D07D0F6
:102EC000042F00D9E5E6E004C00E00F037F9E0E693
:102ED000052F00D9DDE6F6E7E004C00E002DDDD1B8
:102EE00000F014F9D5E6002D04D0E004C00E00F087
:102EF00006F9CEE600F0FEF8CBE61A4B5B785B07EE
:102F000004D4E004C00E002DC8D0E9E7002D09D09C
:102F1000E404E40E200000F0F9F80321200000F0A2
:102F200031FDB6E6012000F04FFD012F00D8B0E6DC
:102F3000022000F049FDACE6002D06D0002F01D0A4
:102F40003000E8E6E004C00ECAE7002F07D05020AA
:102F5000392E00D0012007F002FA300014E7E00417
:102F6000C00E9BE7AA2E002070B50400218840798E
:102F700000F090F9051C00F00BF900F089F8291C0D
:102F80002000FFF709FE70BD037910B50400002B87
:102F900011D0FFF711FC00280ED100F009FC002829
:102FA00009D06379002B06D0074B5B785B0702D50D
:102FB000022000F009FD10BD2000FFF7D5FF200022
:102FC000FFF7D2FBF7E7C046AA2E002010B500207D
:102FD00005F02EF8002005F045F800F01FFC00F089
:102FE000B7FC04F009FB04F0EDFA10BD10B505F0D4
:102FF0001BF9FFF7EBFF10BD10B500F0F9FBFFF771
:10300000F5FF10BDC2B20004000F062818D00F2330
:1030100006280ED80E3003400020012B08D80120CE
:10302000F02A05D007D80020E72393424041C0B2E0
:1030300070470630EFE7F43A100043425841F6E794
:103040000120E72AF4D9F13A53425A41D0B2EFE7CE
:1030500003000279002010B5824204D0188800F0E5
:103060000FF9FFF7CFFF10BD82B002B0704782B0FA
:1030700002B07047704710B5FFF7FCFF10BD0000AD
:1030800010B5FFF7F8FF014B187010BD6E16002049
:10309000704710B5FFF7F4FF10BD000010B5034BEB
:1030A0001B781843FFF7ECFF10BDC0466E160020DA
:1030B00010B5034B1B781840FFF7E2FF10BDC04668
:1030C0006E16002010B5034B1B785840FFF7D8FF51
:1030D00010BDC0466E160020704710B5FFF7FCFF0C
:1030E00010BD000010B5FFF7F8FF014B187010BDC0
:1030F0006F16002010B50020FFF7F4FF10BD01236C
:10310000834010B5D8B2FFF7EDFF10BD0123834017
:1031100010B5034A10781843C0B2FFF7E3FF10BDA3
:103120006F1600200123834010B5034A107898439E
:10313000FFF7D8FF10BDC0466F1600200123834063
:1031400010B5034A10785840C0B2FFF7CBFF10BD4E
:103150006F16002010B5034B1B781843FFF7C2FF12
:1031600010BDC0466F16002010B5034B1B781840E9
:10317000FFF7B8FF10BDC0466F16002010B5034B17
:103180001B785840FFF7AEFF10BDC0466F160020F9
:103190007047032370B50126CC086343D218072378
:1031A000350019408D400021EDB20300CB40545C46
:1031B00033405B4263402B40634053540131032949
:1031C000F3D170BD30B50724032300220440C008AA
:1031D00058430125091810008B5CE3402B409340B5
:1031E00001321843C0B2032AF6D130BD07B503043B
:1031F00001AA10801B0E0800052B07D812780F2A91
:1032000004D819018918024AFFF7C3FF07BDC04659
:103210007016002007B5030401AA10801B0E0020C1
:10322000052B07D812780F2A04D8180102498018F4
:10323000FFF7C8FF0EBDC04670160020F7B5032487
:1032400001270D4B01AE30801A780C4B1B781A43C6
:103250000092009BE5B223413B4204D1013CF8D2ED
:1032600000252800FEBD2800316800F07FFE80B2F6
:103270000128F3D0F5E7C0466F1600206E16002037
:1032800007B501AB18800198FFF7D8FF019900F04E
:103290006DFE0EBD37B50F4B01AD1B782980002B9D
:1032A00003D00198FFF7ECFF3EBD00280CD0286842
:1032B000FFF7C4FF040001002868FFF797FF200014
:1032C000019900F053FEEFE72868FFF7A3FF040021
:1032D000F5E7C0466D16002030B50400012005005A
:1032E0008D4029000500954098402A0003002000E9
:1032F0000A43D1B2984322408A4201D12343D8B233
:1033000030BD000010B504001300044A10780A0014
:103310002100FFF7E1FFFFF7E5FE10BD6F1600206B
:1033200070B507250B4B1C780B4B1B78A34200D1C3
:1033300070BD0A4BE200D15A9B1858889A88000445
:103340000843D988013409041143FFF790FE2C404B
:10335000EAE7C046DD160020DC1600209C1600209F
:10336000064B10B558881A88D988000410439A88EB
:1033700009041143FFF77BFE10BDC04694160020E0
:103380000F22F8B51A48837993432BD14379002B48
:1033900028D0184B05881A78174B46881C780723C5
:1033A0009C46164FA2421DD0D300FB181979002964
:1033B00019D01988A94216D15979002913D15988F1
:1033C000891B89B2C7290ED80F2410218279224087
:1033D0000A4382719A79224011439971FFF7D4FD13
:1033E000FFF79EFFF8BD634601321A40DAE7C04698
:1033F00094160020DD160020DC1600209C1600200C
:10340000F7B50E4C0E4B24781B7801940D4C019DA2
:10341000AB4201D10020FEBDDE00A5196F788F42BE
:1034200005D1365D864202D16D79954203D10725DB
:1034300001332B40EBE70120EDE7C046DC1600200E
:10344000DD1600209C160020F0B5040089B006228D
:10345000010004A8FDF7A4F89E4D67792A79237925
:10346000002A1BD10126002B6BD0002F11D0200089
:10347000FFF7EEFD061E0CD0082221002800FDF704
:103480008FF82800FFF76BFAFFF77AFFFFF768FF66
:1034900057E02000FFF778FD012652E022780092E5
:1034A00062780192628802926A8802996E798A1A19
:1034B00092B2002E00D1C4E0C72A00D991E0002BBF
:1034C0003FD023880F229C46AB792988180090436F
:1034D00056D161450FD1002F00D0F5E013400132E5
:1034E0001343AB71FFF73CFF2800FFF74DFDAB79AD
:1034F000A371002625E0002F00D0E5E03A000199F5
:103500000098FFF77DFF3A0001990098FFF778FFD8
:10351000051EEED1009A04AB1A70019A5A700498F5
:10352000FFF7AEFEC3B20004020F032A0CD8012A33
:1035300014D90F21000E014216D0A2798A4313D16B
:103540002E00300009B0F0BD0F2106320A40012ADA
:103550000FD92000FFF718FD3500F1E70F22000E0C
:10356000024201D0002BEBD02033DBB2072BE7D98E
:10357000EFE7EF2BE4D90F33DBB2022BE0D9E8E71A
:1035800061450BD1002F09D1A3712000FFF7FCFC8E
:10359000082221002800FDF703F877E72000FFF755
:1035A00057FD002800D174E7002F00D171E7494B87
:1035B0009A791F2A0BD9198806A80180029941809F
:1035C0001B798271037100234371FFF7DDFC082230
:1035D00021004048FCF7E4FFFFF7D2FEFFF7C0FEF2
:1035E0005AE7AA790F2110008843039016D104AA44
:1035F00013711300009A5F711A70019A5A7005993D
:103600000498FFF731FD2800FFF7BEFC082203995C
:103610002800FDF719F8FFF7A3FE6AE7002B00D199
:103620008FE7298823889942B8D1002FB6D120008E
:10363000A271FFF7A9FC082239002800FDF704F861
:103640007FE7C72A2ED80126002B00D179E73E1E3E
:1036500000D11EE72A8823889A4216D1AA79D30777
:103660000DD40F2113008B4309D0A271F02B8CD005
:10367000D3B21A09013212010B40134384E7082226
:1036800021001448FCF78CFF5BE72000FFF7E0FC0B
:1036900000289CD10123AA7920001343AB71FFF7C6
:1036A00073FC4EE704AA13711300009A5F711A703D
:1036B000019A5A7004980599FFF7D6FC0822310048
:1036C0002800FCF7C1FFE1E60123024A91790B4390
:1036D00093710EE794160020F0B585B06C4600900B
:1036E00020006160FFF7B0FE264E071E264D0CD06D
:1036F0002379002B02D003CCFFF7B9FC07272878E9
:103700003378834225D105B0F0BD220002AB9C4640
:1037100003CA03C32379002BF0D007233078441C5D
:103720001C402B789C420AD0184BC00008226146EE
:103730001818FCF735FF3470FFF7F2FDDEE7FFF7EE
:103740005BFC08223900124837702F70FCF77CFFB1
:10375000D4E70E4CC0002018FFF776FE0028D2D028
:103760002B78DB001A5BE4186088E188A3880004EA
:10377000090419431043FFF77AFC2B7801333B40CF
:103780002B70BCE7DC160020DD1600209C16002004
:1037900094160020014B1878C00870472E1700209F
:1037A000024B1878072318407047C0462E17002098
:1037B000034B187807231840431E9841C0B2704746
:1037C0002E170020014B18787047C0463117002093
:1037D000024B1A78104318707047C046311700200A
:1037E000024A1378834313707047C0463117002094
:1037F0000022014B1A70704731170020024B1A78D3
:10380000104318707047C04632170020024A1378E0
:10381000834313707047C046321700200022014BCB
:103820001A70704732170020704710B5FFF7FCFF81
:1038300010BD0000030010B5044A1078034203D005
:1038400098431070FFF7F1FF10BDC0462F170020FE
:10385000704710B5FFF7FCFF10BD0000010010B568
:10386000044A13781940814203D003431370FFF7D1
:10387000F0FF10BD30170020030010B5044A107887
:10388000034203D098431070FFF7E3FF10BDC0461A
:103890003017002010B5044B1A78002A03D00020FE
:1038A0001870FFF7D6FF10BD3017002010B5094B78
:1038B0001C78094B1B781C43084B1B78002B06D047
:1038C0001C4304F0E9FB002801D0FFF7E3FF2000D0
:1038D00010BDC046311700203217002030170020DD
:1038E00070B50B4C2568FFF7E1FF28702468094D7F
:1038F000082229002000FCF72BFE002807D0082210
:1039000021002800FCF74CFE200004F06FFB70BD86
:103910008C0D00202617002070B50B4C2568FFF792
:10392000C5FF68702468094D202229002000FCF79B
:103930000FFE002807D0202221002800FCF730FECF
:10394000200004F05DFB70BD900D002006170020E4
:1039500010B5074B1B78002B06D0064B1B787F2B2E
:1039600002D9FFF7D9FF10BDFFF7BAFFFBE7C0464A
:10397000AC0D0020AA2E0020704710B5FFF7FCFF09
:1039800010BD0000094A0B00527810B552070AD545
:10399000074CC10019432170FFF7B8FB2078C0081D
:1039A000FFF7EBFF10BDFFF7B1FBFBE7AA2E0020EE
:1039B0002E170020002010B5024B1870FFF7DDFF16
:1039C00010BDC0462E17002010B5094A1378190003
:1039D000814311704A070AD1994208D0054B5B78A0
:1039E0005B0704D5C808FFF79DFBFFF7E3FF10BD99
:1039F0002E170020AA2E00200A4A10B55378590726
:103A0000C90F81420CD00121084003318B43800053
:103A100018435070108800F04AF80220FFF7D4FFD6
:103A200010BDC046AA2E0020044B10B558780123C3
:103A30004007C00F5840FFF7DFFF10BDAA2E00203F
:103A400010B50120FFF7D8FF10BD10B50020FFF71B
:103A5000D3FF10BD704710B5FFF7FCFF10BD00008D
:103A600010B508F0C1FF0020014900F01AFE10BD9A
:103A7000FFFF0000002010B500F0B7FD034B02006F
:103A800000209A4201D104F0E3F810BDE6FE0000E8
:103A900010B5022000F09CFD10BD10B5032000F011
:103AA00097FD10BD10B5042000F09FFD10BD10B5AE
:103AB0000100042000F0F5FD10BD10B501000E203E
:103AC00000F0E3FD10BD10B5040001210F2000F04F
:103AD000F4FD01222521200000F0BAFD10BD0000F8
:103AE00007B5034B01A81B780370FFF7ECFF07BD78
:103AF0003112010010B504000421132000F0DDFD97
:103B000004222621200000F0A3FD10BD002307B5EC
:103B100001A80193FFF7EEFF07BD000007B508F00D
:103B200063FF0020234900F0BCFD0021022000F0CB
:103B3000ACFD0121204B0320197000F0A6FDA0214F
:103B40000420490100F0ADFD0021062000F09DFD9C
:103B50000021072000F099FD0021082000F0ADFDB4
:103B60000021242000F091FD0021172000F08DFDA0
:103B700000210C2000F089FD00210D2000F085FDC2
:103B8000002300221821009201936846083200F0B9
:103B90005FFD0021202000F090FDFFF7A1FFFFF75F
:103BA000B5FF002004F068F804F08DF8FFF753FF2C
:103BB00007BDC046E6FE00006E16002010B5FFF7F8
:103BC000ADFF10BD73B504F053FC094D04002B8804
:103BD00083420CD06B4600261E8004F049FC6B46E5
:103BE0009E80588000980199FEF798FE2C8073BD46
:103BF0003C17002010B504F009FC024B1860024B82
:103C0000186010BD34170020381700207047704727
:103C100010B5FFF7FCFF10BD10B5FEF7A5FA10BDFB
:103C20000120704710B5054800F07AFA08F0EAFE66
:103C3000FFF7ECFFFFF7ECFF10BDC0461941000095
:103C40000120704710B5FFF7FBFF10BD704710B59E
:103C5000FFF7FCFFFEF774FA10BD10B500F080FA14
:103C6000FEF737FE02F0D2FE10BD000010B504F0E2
:103C7000B3FB04F037F800F029FBFFF7EEFF8022DA
:103C8000054B524219780A431A701888FFF70FFF44
:103C9000FFF7C2FF10BDC046AA2E0020F0B587B0C6
:103CA000FFF7BEFF002809D1FFF78CFF02F016FED8
:103CB00003F0CCFCFEF71CFE07B0F0BD00F01EFBCD
:103CC0002C4F00243D0020000134E4B22E8800F087
:103CD00071FA062C4BD002358642F4D0264B1B7865
:103CE0009B0701D500F06CFAFFF7ACFF00240390AE
:103CF000200000F05FFA3B88019098422FD04340AB
:103D00009BB20293012300250093009B029A134269
:103D10001BD01E00019B1E40731E9E41039BF6B2EA
:103D2000002B0DD004AB1D705C7004F0A1FB0122D0
:103D300004AB58801A715E7104980599FEF7EEFD88
:103D400032002900200001F06BFB009B01355B0075
:103D50009BB2EDB20093102DD7D1019B3B80013473
:103D6000E4B20237062CC3D1FFF744FF9EE7864238
:103D7000B4D199E73E1700204A17002070B500F033
:103D8000FFF8A4230400DB0198424CD2A020C0011C
:103D9000844200D39EE0DF2C1BD8CC2C40D8A72C2B
:103DA0000AD8A42C00D978E0012C68D0231F9BB23C
:103DB000A02B64D9002462E02300A83B9BB21A2BFD
:103DC000F8D85834524BE4B26400E05A8824E40135
:103DD00054E08023DB019C421AD28026B601B44213
:103DE00000D385E0E72C4AD9631EFF3B013EFF3E2E
:103DF0009BB2B342DED2200AC0B200F041F9050006
:103E0000E0B200F0BDF82D0235400543ACB236E01B
:103E1000E0B200F0B5F8F0231B011C4004433D481C
:103E20000443A4B22BE0A523DB0198421CD23A4BF9
:103E300098423CD8394B98420CD8394B984231D8EB
:103E40000323C4B2A0081C40023BA3404001354CF0
:103E50001843E5E70323234001249C40C006400F9C
:103E600040012043304CDBE7304B984209D81F20FB
:103E70002F4B20409C4224D82E4C00020443201C8F
:103E800070BD2D4BC3189BB21F2B00D992E7F824AD
:103E9000000264012040294CF0E7200080242438EF
:103EA000E401BDE71F2020400002254CE6E7032384
:103EB000234001249C40C006400F40012043214C78
:103EC000AEE700F0DDF8F824000264012040013480
:103ED000FF34D3E71F20204000F0D2F8E405240F80
:103EE0002402C30600D5000100B22043164C97E718
:103EF000E004C00E00F0C4F80500E0B2F82400F0C1
:103F00003FF82D0264012540054335437EE7C04656
:103F1000420D010000A0FFFF5F5200003F52000071
:103F20001F520000008DFFFF008CFFFFBF520000FA
:103F30009F520000F4A0000040ADFFFFF0A0000081
:103F4000F1A00000008AFFFF0090FFFF13B50B04F3
:103F500001AA040011800020190E052905D8127845
:103F60000F2A02D8200003F017F816BD07B501ABE1
:103F700019800199FFF7EAFFFFF700FF0EBD00006F
:103F8000030010B5E72808D8DF2808D8312861D009
:103F90000ED8292855D02A2862D0180010BDE03844
:103FA0000728FAD8FCF71AF918F9252A38F93F44F6
:103FB000392808D0822806D03528EED12F4A127829
:103FC0009206EAD506E02D4A1178890750D1527839
:103FD0001207E2D52923E0E70121284802780A42A6
:103FE00036D140780842D8D0E323D206D5D5002375
:103FF000D3E7224A12785107F6D4CEE71F490A7850
:10400000500733D44978C90732D410210A405142AD
:104010004A4152421340C0E7184A51788907BCD53B
:104020001278E723E1E7154A12781107F9D4B4E7CB
:1040300012490A7810071DD449788907E5D5E42389
:10404000ABE70E4A1178890616D452781207A4D528
:104050003923A2E7094A127852069ED52A239CE703
:10406000064A1278520698D5312396E7E22394E760
:10407000E02392E7E62390E735238EE7AA2E00207F
:1040800030B5244C21784B070DD514220240043A58
:1040900053425A4118230340083B5D426B419A4208
:1040A00001D00C2358400B070DD514220240143ABE
:1040B00053425A4118230340183B5D426B419A42D8
:1040C00001D00C2358406478E3070DD5112202403B
:1040D000013A53425A4118230340083B5D426B4169
:1040E0009A4201D009235840A3070DD5112202405E
:1040F000113A53425A4118230340183B5C42634132
:104100009A4201D009235840CB0601D51823984381
:1041100030BDC046AA2E0020002070470020704706
:10412000014B18607047C046940D002010B5FFF792
:1041300097FC10BD10B500F0E1F80A2006F00FF969
:1041400000F0DCF8002000F035F8C30703D5FFF7D6
:10415000EDFF08F02BF910BD10B5FFF7EBFF10BD18
:1041600010B5FFF787FC002801D1FFF727FDFFF707
:104170008FFC084B1870FFF795FC074B1880FFF772
:10418000EBFFFFF78AFCFEF784FF044B1878FEF77D
:10419000A4FF10BD4A170020AA2E00206F16002091
:1041A000704710B5FFF7FCFF10BD704710B5FFF763
:1041B000FCFF10BD014B4000185A7047B82E00207C
:1041C000704700000A4B8000C35870B55A1C0DD0D0
:1041D00072B60F221C00134094430E3A15009D4006
:1041E0002000290006F06FFEA56062B670BDC046D3
:1041F000780D0100F8B5002420000134E4B2FFF787
:10420000E1FF102CF8D10B4C0F25260001271836A2
:104210002068431C09D072B6030039002B40994036
:104220002022A84306F04FFE62B60434B442EFD118
:10423000F8BDC046B80D0100F0B5224B85B0029222
:104240008A00D358040001915A1C34D072B601255B
:104250000F222E001F0013409E40974331002A007A
:104260003800360406F02FFEBE6062B6FDF744FF4C
:104270000C239C46029B0026DB431349A444039372
:104280000A682388501C18D010000F27B843006814
:104290003A40D040284210D12E00029A1343238086
:1042A00002340431A445EBD10198FFF78BFF3100B4
:1042B0000198FDF722FF05B0F0BD039A134023805B
:1042C000EEE7C046780D0100B80D010010B50C24D2
:1042D000FFF790FF220000210648FCF7B5F9220005
:1042E00000210548FCF7B0F9062000F03DF8FFF783
:1042F00058FF10BDB82E0020AC2E002030B585B080
:104300000C22002101A8FCF79FF9002401252100BF
:1043100001342A0001A86D00E4B2FFF78DFFADB2B1
:10432000102CF4D10E4C0C22200001A9FCF710F93E
:1043300005006B1E9D41EDB2002804D00C22200028
:1043400001A9FCF72DF92B0006220649200000F0F8
:1043500025F80400FFF72AFF200005B030BDC04655
:10436000AC2E0020B82E0020F8B504012000FCF788
:10437000DBF8094B06001860012500231036A34224
:1043800000D1F8BDC218F718117829401170013218
:10439000BA42F9D11033F2E750170020F0B58DB0D2
:1043A00009920022764E04933478764B019008915E
:1043B0001A70944200D1B0E004F028F8724B1A68E9
:1043C0001860851AFF2D07D8002D06D1049B002BFD
:1043D00000D0B0E00494A3E0FF25EBB20A936B4B4E
:1043E0006B4A196800239C461370664A3370127832
:1043F00003930692089A07930292019A0592099AEA
:1044000012018A180B920B9B994212D1079B002B29
:1044100002D001225A4B1A706346002B02D0594B2E
:10442000069A1A70039B002BD0D00122584B1A70A9
:10443000CCE7002001260B5C0F18B3431CD03B785F
:104440005A083340AA4222DC3B70DBB2334225D10A
:10445000029BA4461A88330017008340059E9F43A1
:10446000368833401F43069B7A401A43531E9A41B5
:10447000D3B20693029B1F8001301028DAD1029B31
:10448000103102330293059B02330593BBE70A9E6A
:104490000794921B520013433B70EDE70394EBE744
:1044A00001990C8801884C40002106941C008C4026
:1044B0002500A4B20494545C57189C4305942C0026
:1044C000069D2C4220D0059C002C14D1019C049DFB
:1044D00024889C462C40661EB4410A252C433C701F
:1044E000E4B21E001C4206D00488049E029366407B
:1044F00006801E00039301311029D7D10199103293
:1045000002310191023028E0059C002CF3D03C7868
:10451000E507F0D41C403C70EDE7049B002B06D16E
:104520001B4B1B78002B26D0049B002B03D103F0E0
:104530006DFF154B1860154B15491A6800230B7059
:104540000F4908980E780F499C4609780293039109
:104550000999013309015118079107998A429FD19E
:104560006346002B01D0064B1E70029B002B02D02D
:10457000044B039A1A70034B18780DB0F0BDC04677
:104580004C1700204B170020541700205017002014
:104590005817002010B504F09DF9FFF767FB04F0F1
:1045A000ADF910BD10B504F0B1F9FFF777FB04F0D9
:1045B000B1F910BD10B503F0B2FE04F086F9FFF7B3
:1045C00031FBFFF7E7FFFFF7EDFFFFF740FBFAE7EF
:1045D00007B500236A46D3716B4601000122D81D3E
:1045E00008F012FB6B46D8790EBD07B500236A466A
:1045F000D3806B4601000222981D08F005FB6B4634
:10460000D8880EBD002307B5010001A8042201933C
:1046100008F0FAFA01980EBD07B56A460300D01DEE
:1046200001700122190008F009FB07BD07B56A46B1
:104630000300901D01800222190008F0FFFA07BD57
:1046400007B504220191010001A808F0F7FA07BD9F
:10465000F8B51400D31D6A46DB08DB00D31A00AF9F
:104660009D460500220068460E0008F0CDFA2200A3
:1046700069462800FBF76CFF002804D022003100B7
:10468000280008F0DBFABD46F8BD70B50D00040047
:10469000FFF79EFFA84203D029002000FFF7BCFFD0
:1046A00070BD70B50D000400FFF79FFFA84203D056
:1046B00029002000FFF7BAFF70BD70B50D0004009F
:1046C000FFF7A0FFA84203D029002000FFF7B8FFA2
:1046D00070BD0000F0B5050A85B0030CEDB2019085
:1046E00003AED8B2002D0FD1002901D0284B185CA1
:1046F00030707070B07072783078B37812021B042A
:104700001043184305B0F0BD01AB1F7884B20029F7
:1047100001D01F4B1C5C0620FF217843FBF7CCFD2A
:1047200055235B4243437F00FF1803235F43FF2170
:10473000FFB23B00CF1B4A1B6B437D431B122D1264
:10474000CB1A491B62436343614312121B120912C5
:10475000D2B2DBB2C9B2E4B2062814D8FBF748FDE6
:1047600004060C0A0F13040023000C00347073704D
:10477000B270C0E721001C0013000A00F6E70B002E
:1047800021001400F9E7210014001A000B00EDE7E6
:10479000D90D01001FB50121FFF79CFFFF21030088
:1047A000020A0A400B4012021343000C034A08405D
:1047B00013400004184305B000BDC046FFFF00FFD2
:1047C000010030B5C0B2012916D9F723FF225B01E1
:1047D000994202D84A090832D2B20124A0184010E6
:1047E00005004543ADB2C3B28D4206D9013BDAB2F2
:1047F0009442F3D9013CE0B230BDFF28FCD0013334
:10480000DCB2F5E7054B06481A885043054A801884
:1048100080B21880030A1818C0B270479E0D00209D
:10482000050800001936000040230100020010B501
:104830001940184201D0C243D2B20F234C1EA141ED
:10484000134092065B18920F084952008A1851785B
:1048500012784B431B119B1840B2DBB2002801DADF
:104860005B42DBB2803BD8B210BDC046D10D010027
:104870001FB5030A01903031D8B2114B4900C95C11
:10488000E4234B431B121C339A1AD317D2185A40F5
:10489000D200821A01AC131C120400D500231BB2F3
:1048A0005843001260702388FF201A00A1781B0A69
:1048B00002401B02084013430004184304B010BD1B
:1048C000640C0020030C84B001903031D8B2104B3E
:1048D0004900C95CE4234B431B121C339A1AD317BB
:1048E000D2185A40D200821A131C120400D5002399
:1048F0001BB2584301AB1B88FF211A0000121B0A90
:104900000A4008401B0213430004184304B07047D8
:10491000640C002084B001A901900A700B88FF206C
:104920001A0089781B0A02401B0208401343000446
:10493000184304B0704700001FB50A4B30314900DE
:10494000CB5C01AC9B1A019023702388FF201A00D6
:10495000A1781B0A02401B020840134300041843BD
:1049600004B010BD640C00201FB5303101900A481E
:10497000490041184B7801AC9B1A23702388FF2013
:104980001A00A1781B0A02401B02084013430004CE
:10499000184304B010BDC046640C0020F0B530319F
:1049A000114E4B00F3185F7885B03D00203D01901B
:1049B00001ACC0B26BB22D0602D52025ED1B6BB247
:1049C0004900715C8A1AD318C31823702388FF200A
:1049D0001A00A1781B0A02401B020840134300047E
:1049E000184305B0F0BDC046640C002084B004AA92
:1049F00001901078032253435B1001A9C3180B7078
:104A00000B88FF201A0089781B0A02401B0208400D
:104A100013430004184304B070471FB51C000190F5
:104A20004BB2080601D549424BB23820C01A80B2B9
:104A300092B252434043801880B2FFF7C1FE032375
:104A4000434301AAE418147013889178FF201A00D8
:104A50001B0A02401B02084013430004184304B021
:104A600010BD00007FB5104E30335B00F5189B5D24
:104A70006D78703B59437F23203D6A435118CA1714
:104A80001A405218D21101AC1218019022702388DA
:104A9000FF201A00A1781B0A02401B0208401343A2
:104AA0000004184304B070BD640C00207FB5104EA4
:104AB00030335B00F5189B5D6D78703B59433F23A5
:104AC000203D6A435118CA171A405218921101AC7E
:104AD0001218019022702388FF201A00A1781B0A67
:104AE00002401B02084013430004184304B070BD89
:104AF000640C0020F0B53033164F5E00BB195B78B4
:104B000085B0203B5A43F35D01901E00703E01AC1E
:104B1000C0B275B2360602D57025ED1A6DB23823D3
:104B20005D1B694389187F22353B5943CB171340DE
:104B30005B18DB11C01820702388FF201A00A178B1
:104B40001B0A02401B02084013430004184305B02F
:104B5000F0BDC046640C0020104B3031490084B0D9
:104B600001905818C95C03234078091A4B43DBB203
:104B7000991AC9B2202801D9D218D1B201AA11704C
:104B800013889178FF201A001B0A02401B0208407C
:104B900013430004184304B07047C046640C00205F
:104BA0007FB50E00041C01901000FFF73DFE30366B
:104BB000114B7600F35C01ADC018C0B20200803A20
:104BC000E4B253B2120603D580235B421B1A5BB2D8
:104BD0000C205B00DBB243431B12E3182B702B88C5
:104BE000A9781A00F3301B0A02401B020840134345
:104BF0000004184304B070BD640C002030B5104BA5
:104C000030314900C95C85B08D1A019001ACC0B249
:104C10006BB22D0601D5531A5BB2DAB21823534397
:104C20001B12C01820702388FF201A00A1781B0ACD
:104C300002401B02084013430004184305B030BD76
:104C4000640C0020C943C9B284B0890801AB0918BB
:104C5000019019701A889978FF201300120A0340F6
:104C6000120208401A430004104304B070470521A3
:104C700084B0594304AA12880190521892B2131CAE
:104C8000FF2A00D9FF23DB4301AA9178DBB25B182E
:104C9000191CFF2B00D9FF211388FF201A001B0AC3
:104CA00002401B02084013430004184304B070473D
:104CB0001FB5019006A80088C318C81709184140FD
:104CC000D0171218424009B29BB292B20901FF29D3
:104CD00000DDFF2112B21201FF2A00DDFF22081CB5
:104CE00014B209B2A14200DD101C1B189BB21A1CA1
:104CF000FF2B00D9FF22D34301AA9178DBB25B18C6
:104D0000191CFF2B00D9FF211388FF201A001B0A52
:104D100002401B02084013430004184304B010BDB6
:104D2000F0B585B0070C15000AAA01901688FF207F
:104D300001ACFFB2482B06D8F31A9BB21E1C83426B
:104D400000D9061CB0B2083189B2102905D92B0050
:104D500008339BB2102B00D9FF200323C043EA176E
:104D60001A400C4B52195B78C0B29210C019D2187D
:104D70002270011CFF2800D9FF212388FF201A0080
:104D80001B0A02401B02084013430004184305B0ED
:104D9000F0BDC046C82E00201FB506AA128801909B
:104DA000D21A92B2131CFF2A00D9FF23DBB2D843D8
:104DB00001AA9178C0B2091810780C1C1B18137046
:104DC000FF2900D9FF241388FF201A001B0A024084
:104DD0001B02204013430004184304B010BD84B0EC
:104DE00004AA12880190D21A92B2131CFF2A00D989
:104DF000FF23DB4301AA9178DBB25B18191CFF2B60
:104E000000D9FF211388FF201A001B0A02401B0251
:104E1000084013430004184304B07047024B1A784B
:104E2000104318707047C0465A170020012310B570
:104E3000044C082218210448237007F0E5FE0023E3
:104E4000237010BD5A170020C82E002010B50B008B
:104E5000041E02D1C80FC00110BDC11742184A403C
:104E600012B29918002B0CDB981A4001FBF724FAB8
:104E70002021091A49B2C8B2002CEDDA4042C0B272
:104E8000EAE74801D11AFBF717FA6021F1E77FB58D
:104E9000040A0190E4B21000E51AFFF7D7FF83007F
:104EA000C01AEDB22D18EDB26C4301AE241274702D
:104EB0003388FF201A00B1781B0A02401B02084009
:104EC00013430004184304B070BD00007FB5040C08
:104ED000051CE4B21000E61AFFF7B8FF8300C01A01
:104EE000FF23F6B236181800F6B2744328402D0A94
:104EF0001D402D020543200A034C184025400004A4
:104F0000284304B070BDC046FFFF00FF7FB5060A0E
:104F10000190100008AA1278F6B29C1AFFF796FFCB
:104F20003419E4B2201AC0B2704301AD04126C709F
:104F30002B88FF201A00A9781B0A02401B02084098
:104F400013430004184304B070BD00007FB5061C75
:104F5000040C100008AA1578E4B25D1BFFF776FF79
:104F60006519EDB2281AFF25C0B24443280030402D
:104F7000360A2E4036020643200A034C28402640BB
:104F80000004304304B070BDFFFF00FF30B585B0B2
:104F9000019010001D00FFF759FF01AC401920706F
:104FA0002388FF201A00A1781B0A02401B02084038
:104FB00013430004184305B030BD30B585B00190EF
:104FC000100008AA147801AD1C1BFFF73FFFE4B2E4
:104FD000241A2C702B88FF201A00A9781B0A024083
:104FE0001B02084013430004184305B030BD000005
:104FF000082210B518210348FFF72AFB0022024BB4
:105000001A7010BDC82E00205A1700201FB5FFF7D8
:10501000C1FBFF210300020A0A400B4012021343A6
:10502000000C034A084013400004184305B000BDBB
:10503000FFFF00FF10B5FFF7DBFF10BD352310B5F4
:10504000064C032206492370601CFBF7A9FA812352
:105050005B42A380FFF7CCFF10BDC046C82E0020E6
:10506000480801000020704770B504000E001500CC
:10507000FFF7F8FF044B24011C19A35DFF2B02D09E
:105080002B540130C0B270BD640C002010B5024B2F
:10509000DB68984710BDC046D813010010B5024C1C
:1050A0006468A04710BDC046D8130100174B73B504
:1050B0001B18E4331B7805000B4225D06946144BBE
:1050C0009A784A70DA788A705C78FFF79BFBB42193
:1050D000060020004900B430FBF738F903200B1B11
:1050E000D9170140C9186B460640891071436118F1
:1050F00019700098FFF78AFF01040302C2B21B0E69
:105100002800090EFFF7CAFF73BDC046640C0020DB
:10511000C82E0020114B13B51B18E4331B78040074
:105120000B4219D0FFF76EFB6B461870FFF76AFB56
:105130006B466A46C00100127F305870084BDB781E
:1051400093700098FFF762FF01040302C2B21B0EC6
:105150002000090EFFF7A2FF13BDC046640C00201B
:10516000C82E002073B5164B164C0500267918681A
:10517000F60880B246430322611C68463612FBF7EC
:105180000FFAF0B2FFF750FB0200803AE47853B216
:10519000120603D580235B421B1A5BB26A465B0092
:1051A000DBB263431B1293700098FFF7F3FA01041C
:1051B0000302C2B21B0E2800090EFFF76FFF73BD7A
:1051C000D02E0020C82E0020F7B51B4B1B4E05002B
:1051D00034791868E40880B24443711C0322241215
:1051E0006846FBF7DDF9E0B2FFF71EFB0300803BEA
:1051F000B7785CB2F6781B0603D580246442241A83
:1052000064B2FBF761FB3D21FBF7A0F86B4664003D
:10521000E4B274431E3FC919241259709C7000985F
:10522000FFF7B8FA01040302C2B21B0E2800090EF0
:10523000FFF734FFF7BDC046D02E0020C82E002057
:10524000F7B51B4B1B4E050034791868E40880B293
:105250004443711C032224126846FBF7A1F9E0B213
:10526000FFF7E2FA0300803B77785CB2F6781B0622
:1052700003D580246442241A64B2FBF725FB3D2148
:10528000FBF764F86B466400E4B274431E3FC9192F
:10529000241219709C700098FFF77CFA0104030235
:1052A000C2B21B0E2800090EFFF7F8FEF7BDC0467C
:1052B000D02E0020C82E002010B5024B9B689847C6
:1052C00010BDC046D8130100F0B503254F4B89B07F
:1052D000DC7806006543AD10EBB22100FF2005939A
:1052E000FAF7EAFFC3B20493B378002B0CD0002284
:1052F00011001000FFF7E0FF602200214448FBF797
:10530000A3F90022434B1A70434A137801331370F8
:105310003F4B0293002301930026029F3D4B1B78D5
:1053200033435CD1FBF7D0FA3C4B984257DC029BED
:105330001C703000019906AAFFF796FE002811D0D4
:1053400006AB1B7838780393059B984254D9401BD1
:10535000611B6843FAF7B0FFC1B20B00220003984B
:10536000FFF79CFE0136F6B21037062ED6D1019B10
:105370000133DBB20193029B01330293019B102B9B
:10538000CAD1254B04991A788A4201D100221A7099
:10539000204A13780133DBB21C2B35D900231020AF
:1053A000137005221A4E651E50360199331A052ACC
:1053B00003D11F5CBC4200D11D541F78A74201D30A
:1053C0001D701C740139C9B201330029EFD1013AB3
:1053D000D2B21030002AE8D1002009B0F0BD3B78ED
:1053E000002BA6D09C42A4D90B4A049912788A4279
:1053F0009FD1013B3B709CE729006043FAF75CFFBB
:105400000023C2B21900AAE71370E5E7C82E0020F6
:105410005C1700205B1700205917002054555505D4
:10542000F0B585B005000E001700FEF709FC0190ED
:1054300000283FD00024A74205D13100280002AA4D
:10544000FFF712FE0400284D2B781B19082B20DDD6
:105450000826611C361B32006918681CFBF7A0F88F
:10546000210028000931320069180930FBF798F84B
:10547000280061001931720069181930FBF790F8A3
:10548000210028001131320011306918FBF788F82B
:105490002E7000222B7811009C46144D6346D0B22A
:1054A000C318DBB2844207D86444E4B2002901D0B7
:1054B0000D4B1C7005B0F0BD02A9575C0A490132C2
:1054C000C8183900303149004E5D69184978467076
:1054D00041724774002004490C335B00CB18591CFF
:1054E000587048700199D9E7BC170020640C00205F
:1054F0000120704710B5FFF7FBFF10BD0E23584386
:1055000082B0C0B201AA1070C018031CC0B24228F9
:1055100000D942231278DBB21802104302B0704760
:10552000F0B58BB0039000780591FFF7E7FFC4B2A8
:10553000270003041B0E02932D4B07AA19682D4B5D
:1055400010801B7989B25B084B431B12DBB20493BA
:105550003037294B7F00FF18029AE3B29A4206D8EF
:105560004123002093424041C0B20BB0F0BD234B19
:10557000039A1B5D52781A4237D03D787E78703D91
:10558000203EADB2B6B22800330068437343C01862
:1055900080B2FFF715F90300049832B2154E00905F
:1055A00029B2B57870782D020543F07800042843BD
:1055B0000002059D000AA84709AB1870020400020A
:1055C000120E000E5A7098700998FFF71FFD010423
:1055D000030208AA090E1B0E107051709370C9B215
:1055E000C2B2DBB22000FFF759FD02370134B3E746
:1055F000D02E0020C82E0020640C0020480D002072
:1056000010B50249FFF78CFF10BDC0460D4F0000DA
:1056100010B50249FFF784FF10BDC0464D4F000092
:1056200010B50249FFF77CFF10BDC046ED490000F0
:1056300010B50249FFF774FF10BDC046BB4F000014
:10564000F0B5070089B000780391FFF757FFC4B2A7
:10565000250005AB06041880330E0193274B303527
:105660001979274B49081B686D009BB24B431B12ED
:10567000DBB20293234BED18019AE3B29A4206D8AB
:105680004123002093424041C0B209B0F0BD1E4BFF
:105690007A781B5D1A422DD0184B6A785878297891
:1056A000844666469878203A00020643D8787039D6
:1056B00000043043000209B2029B12B2039E000AAA
:1056C000B04707AB187002040002120E000E5A70A9
:1056D00098700798FFF79AFC0104030206AA090EC6
:1056E0001B0E107051709370C9B2C2B2DBB22000B1
:1056F000FFF7D4FC02350134BEE7C046C82E0020B7
:10570000D02E0020640C0020480D002010B5024966
:10571000FFF796FF10BDC0468F4E000010B502493E
:10572000FFF78EFF10BDC046CD4E000010B50249F8
:10573000FFF786FF10BDC0461B4A000010B50249A6
:10574000FFF77EFF10BDC0468D4F0000F0B507008B
:1057500087B000780191FFF7D1FE03AB1880234B8F
:1057600006041A79224B92081D680132ADB25543E6
:105770002D12360EEDB2C4B2E1B28E4206D84123EC
:105780000020B3424041C0B207B0F0BD194B7A7857
:105790001B5D1A4227D0154B9C465A789B781B02FA
:1057A0001A436346D878019B0004104300022A0084
:1057B000000A984705AB187002040002120E000E92
:1057C0005A7098700598FFF721FC0104030204AA9F
:1057D000090E1B0E107051709370C9B2C2B2DBB2C9
:1057E0002000FFF75BFC0134C6E7C046C82E00204E
:1057F000D02E0020480D002010B50249FFF7A6FF6B
:1058000010BDC0467148000010B50249FFF79EFF69
:1058100010BDC046C548000010B50249FFF796FF0D
:1058200010BDC0461549000010B50249FFF78EFFB4
:1058300010BDC0463949000010B50249FFF786FF88
:1058400010BDC0466949000010B50249FFF77EFF50
:1058500010BDC0469D49000010B50249FFF776FF14
:1058600010BDC046A14B000010B50249FFF76EFF06
:1058700010BDC046FD4B0000F0B507008BB00078AE
:105880000591FFF73BFE07AB06041880330E029329
:10589000294BC4B21A79294B92081D68ADB2554301
:1058A0002D12EDB228004030C0B2FEF7BDFF8038A7
:1058B00043B228000393FEF7B7FF803843B2049346
:1058C000029AE3B29A4206D8412300209342404113
:1058D000C0B20BB0F0BD1A4A7978125D114229D0DE
:1058E000154A0095944651789278059E120211430C
:1058F0006246D078049A0004084300020399000A23
:10590000B04709AB187002040002120E000E5A7064
:1059100098700998FFF77AFB0104030208AA090EA0
:105920001B0E107051709370C9B2C2B2DBB220006E
:10593000FFF7B4FB0134C3E7C82E0020D02E0020AF
:10594000480D002010B50249FFF796FF10BDC04674
:10595000654A000010B50249FFF78EFF10BDC04632
:10596000AD4A000010B50249FFF786FF10BDC046E2
:10597000F54A0000F0B5070087B000780191FFF705
:10598000BDFD03AC354B20801B79050401332D0E82
:10599000191CFF2B00D9FF21314889B2FAF78CFC82
:1059A000247886B2E2B2954206D841230020AB4269
:1059B0004041C0B207B0F0BD2A4B79781B5D194257
:1059C00038D0294B1B78013B5BB2190634D5310026
:1059D000224B1A790132131CFF2A00D9FF239BB2F4
:1059E00059431E4B09129C465A789B7889B21B0278
:1059F0001A436346D878019B000410430002000A52
:105A0000984705AB187002040002120E000E5A707F
:105A100098700598FFF7FAFA0104030204AA090E28
:105A20001B0E107051709370C9B2C2B2DBB220006D
:105A3000FFF734FB0134B5E70C49C95C91420AD148
:105A4000190009480C314900411848788978090241
:105A50000143B142BCD3013BB7E7C046C82E00208A
:105A6000FFFF0000480D0020D42E0020E52E00206E
:105A700010B50249FFF77EFF10BDC046454C00003F
:105A8000F0B591B0089008780B920991FFF736FDB8
:105A900003041B0E0793474BC4B21B780DAA0A934D
:105AA000230010803033444A5B009B18079A05930B
:105AB000E3B29A4206D84123002093424041C0B24B
:105AC00011B0F0BD3D4B099A1B5D52781A422DD0A2
:105AD0003B49032201310EA8FAF762FD089B089AA0
